8=FIX.4.1|9=112|35=0|49=BRKR|56=INVMGR|34=235|52=19980604-07:58:28|112=19980604-07:58:28|10=157|